:100000000C9434000C943E000C943E000C943E0082
:100010000C943E000C943E000C943E000C943E0068
:100020000C943E000C943E000C943E000C943E0058
:100030000C943E000C943E000C943E000C943E0048
:100040000C943E000C943E000C943E000C943E0038
:100050000C943E000C943E000C943E000C943E0028
:100060000C943E000C943E0011241FBECFEFD8E04C
:10007000DEBFCDBF0E9466000C9495000C9400007A
:1000800080E480937C0087E880937A0008959091C3
:100090007C00987F90937C0090917C008770892BE6
:1000A00080937C0080917A00806480937A008091B4
:1000B0007A0084FFFCCF80917A00806180937A007F
:1000C0002091780030917900C901089580E48093EF
:1000D0007C0087E880937A0040E951E080917C00C1
:1000E000887F80937C0080917C0080937C0080914D
:1000F0007A00806480937A0080917A0084FFFCCF3C
:1001000080917A00806180937A008091780090914C
:10011000790020E030E0CA010197F1F72F5F3F4FEF
:0E01200087E0203D3807B9F7D9CFF894FFCF1C
:00000001FF
