:100000000C9434000C943E000C943E000C943E0082
:100010000C943E000C943E000C943E000C943E0068
:100020000C943E000C943E000C943E000C943E0058
:100030000C943E000C943E000C943E000C943E0048
:100040000C943E000C943E000C943E000C943E0038
:100050000C943E000C943E000C943E000C943E0028
:100060000C943E000C943E0011241FBECFEFD8E04C
:10007000DEBFCDBF0E9417010C9442010C9400001A
:10008000E0E8F0E0808183688083E1E8F0E080814F
:100090008B608083219A08959C01823D9105A0F494
:1000A0008DEC90E0909389008093880020E030E010
:1000B00040E951E0CA010197F1F72F5F3F4F283C1B
:1000C0003105C1F784E10895825D90408C529140E2
:1000D000A0F48AE991E0909389008093880020E061
:1000E00030E040E951E0CA010197F1F72F5F3F4F3F
:1000F000283C3105C1F789E10895C9018E5F91401F
:10010000883C9105A0F48DEC92E090938900809357
:10011000880020E030E040E951E0CA010197F1F7A2
:100120002F5F3F4F283C3105C1F78DE10895265CD4
:1001300032402B533140A0F48DEC93E09093890032
:100140008093880020E030E040E951E0CA01019747
:10015000F1F72F5F3F4F283C3105C1F781E2089549
:10016000109289001092880080E0089585B9089562
:10017000209A5098589A599A089590917C00987FA7
:1001800090937C0090917C008770892B80937C00F9
:1001900080917A00806480937A0080917A0084FF55
:1001A000FCCF80917A00806180937A002091780062
:1001B00030917900C901089580E480937C0087E83C
:1001C00080937A0008958093C4009093C50084E4DE
:1001D0008093C20088ED8093C1000895982F80918C
:1001E000C00085FFFCCF9093C6000895209A5098D8
:1001F000589A599A80E480937C0087E880937A002B
:10020000E0E8F0E0808183688083E1E8F0E08081CD
:100210008B608083219A87E68093C4001092C5008A
:1002200084E48093C20088ED8093C10008950E9409
:10023000F60040E951E080917C00887F80937C004B
:1002400080917C0080937C0080917A008064809310
:100250007A0080917A0084FFFCCF80917A008061DF
:1002600080937A00809178009091790020E030E0CE
:10027000CA010197F1F72F5F3F4F87E0203D380714
:08028000B9F7D9CFF894FFCFC4
:00000001FF
